{
    "abi": [
        {
            "inputs": [
                {
                    "internalType": "uint256",
                    "name": "_mintFeeAmount",
                    "type": "uint256"
                },
                {
                    "internalType": "address",
                    "name": "_mintFeeRecipient",
                    "type": "address"
                },
                {
                    "internalType": "address",
                    "name": "_factory",
                    "type": "address"
                }
            ],
            "stateMutability": "nonpayable",
            "type": "constructor"
        },
        {
            "inputs": [],
            "name": "ADDRESS_DELEGATECALL_TO_NON_CONTRACT",
            "type": "error"
        },
        {
            "inputs": [],
            "name": "ADDRESS_LOW_LEVEL_CALL_FAILED",
            "type": "error"
        },
        {
            "inputs": [
                {
                    "internalType": "address",
                    "name": "operator",
                    "type": "address"
                },
                {
                    "internalType": "address",
                    "name": "user",
                    "type": "address"
                }
            ],
            "name": "Burn_NotOwnerOrApproved",
            "type": "error"
        },
        {
            "inputs": [
                {
                    "internalType": "bytes",
                    "name": "reason",
                    "type": "bytes"
                }
            ],
            "name": "CallFailed",
            "type": "error"
        },
        {
            "inputs": [
                {
                    "internalType": "uint256",
                    "name": "tokenId",
                    "type": "uint256"
                },
                {
                    "internalType": "uint256",
                    "name": "quantity",
                    "type": "uint256"
                },
                {
                    "internalType": "uint256",
                    "name": "totalMinted",
                    "type": "uint256"
                },
                {
                    "internalType": "uint256",
                    "name": "maxSupply",
                    "type": "uint256"
                }
            ],
            "name": "CannotMintMoreTokens",
            "type": "error"
        },
        {
            "inputs": [
                {
                    "internalType": "address",
                    "name": "mintFeeRecipient",
                    "type": "address"
                },
                {
                    "internalType": "uint256",
                    "name": "mintFee",
                    "type": "uint256"
                }
            ],
            "name": "CannotSendMintFee",
            "type": "error"
        },
        {
            "inputs": [],
            "name": "CannotSetMintFeeToZeroAddress",
            "type": "error"
        },
        {
            "inputs": [
                {
                    "internalType": "address",
                    "name": "proposedAddress",
                    "type": "address"
                }
            ],
            "name": "Config_TransferHookNotSupported",
            "type": "error"
        },
        {
            "inputs": [],
            "name": "ERC1155_ACCOUNTS_AND_IDS_LENGTH_MISMATCH",
            "type": "error"
        },
        {
            "inputs": [],
            "name": "ERC1155_ADDRESS_ZERO_IS_NOT_A_VALID_OWNER",
            "type": "error"
        },
        {
            "inputs": [],
            "name": "ERC1155_BURN_AMOUNT_EXCEEDS_BALANCE",
            "type": "error"
        },
        {
            "inputs": [],
            "name": "ERC1155_BURN_FROM_ZERO_ADDRESS",
            "type": "error"
        },
        {
            "inputs": [],
            "name": "ERC1155_CALLER_IS_NOT_TOKEN_OWNER_OR_APPROVED",
            "type": "error"
        },
        {
            "inputs": [],
            "name": "ERC1155_ERC1155RECEIVER_REJECTED_TOKENS",
            "type": "error"
        },
        {
            "inputs": [],
            "name": "ERC1155_IDS_AND_AMOUNTS_LENGTH_MISMATCH",
            "type": "error"
        },
        {
            "inputs": [],
            "name": "ERC1155_INSUFFICIENT_BALANCE_FOR_TRANSFER",
            "type": "error"
        },
        {
            "inputs": [],
            "name": "ERC1155_MINT_TO_ZERO_ADDRESS",
            "type": "error"
        },
        {
            "inputs": [],
            "name": "ERC1155_SETTING_APPROVAL_FOR_SELF",
            "type": "error"
        },
        {
            "inputs": [],
            "name": "ERC1155_TRANSFER_TO_NON_ERC1155RECEIVER_IMPLEMENTER",
            "type": "error"
        },
        {
            "inputs": [],
            "name": "ERC1155_TRANSFER_TO_ZERO_ADDRESS",
            "type": "error"
        },
        {
            "inputs": [],
            "name": "ERC1967_NEW_IMPL_NOT_CONTRACT",
            "type": "error"
        },
        {
            "inputs": [],
            "name": "ERC1967_NEW_IMPL_NOT_UUPS",
            "type": "error"
        },
        {
            "inputs": [],
            "name": "ERC1967_UNSUPPORTED_PROXIABLEUUID",
            "type": "error"
        },
        {
            "inputs": [
                {
                    "internalType": "address",
                    "name": "recipient",
                    "type": "address"
                },
                {
                    "internalType": "uint256",
                    "name": "amount",
                    "type": "uint256"
                }
            ],
            "name": "ETHWithdrawFailed",
            "type": "error"
        },
        {
            "inputs": [],
            "name": "FUNCTION_MUST_BE_CALLED_THROUGH_ACTIVE_PROXY",
            "type": "error"
        },
        {
            "inputs": [],
            "name": "FUNCTION_MUST_BE_CALLED_THROUGH_DELEGATECALL",
            "type": "error"
        },
        {
            "inputs": [
                {
                    "internalType": "uint256",
                    "name": "amount",
                    "type": "uint256"
                },
                {
                    "internalType": "uint256",
                    "name": "contractValue",
                    "type": "uint256"
                }
            ],
            "name": "FundsWithdrawInsolvent",
            "type": "error"
        },
        {
            "inputs": [],
            "name": "INITIALIZABLE_CONTRACT_ALREADY_INITIALIZED",
            "type": "error"
        },
        {
            "inputs": [],
            "name": "INITIALIZABLE_CONTRACT_IS_NOT_INITIALIZING",
            "type": "error"
        },
        {
            "inputs": [],
            "name": "InvalidMintSchedule",
            "type": "error"
        },
        {
            "inputs": [
                {
                    "internalType": "uint256",
                    "name": "mintFeeBPS",
                    "type": "uint256"
                }
            ],
            "name": "MintFeeCannotBeMoreThanZeroPointOneETH",
            "type": "error"
        },
        {
            "inputs": [],
            "name": "Mint_InsolventSaleTransfer",
            "type": "error"
        },
        {
            "inputs": [],
            "name": "Mint_TokenIDMintNotAllowed",
            "type": "error"
        },
        {
            "inputs": [],
            "name": "Mint_UnknownCommand",
            "type": "error"
        },
        {
            "inputs": [],
            "name": "Mint_ValueTransferFail",
            "type": "error"
        },
        {
            "inputs": [],
            "name": "NewOwnerNeedsToBeAdmin",
            "type": "error"
        },
        {
            "inputs": [
                {
                    "internalType": "uint256",
                    "name": "tokenId",
                    "type": "uint256"
                }
            ],
            "name": "NoRendererForToken",
            "type": "error"
        },
        {
            "inputs": [
                {
                    "internalType": "address",
                    "name": "renderer",
                    "type": "address"
                }
            ],
            "name": "RendererNotValid",
            "type": "error"
        },
        {
            "inputs": [],
            "name": "Renderer_NotValidRendererContract",
            "type": "error"
        },
        {
            "inputs": [
                {
                    "internalType": "address",
                    "name": "targetContract",
                    "type": "address"
                }
            ],
            "name": "Sale_CannotCallNonSalesContract",
            "type": "error"
        },
        {
            "inputs": [
                {
                    "internalType": "uint256",
                    "name": "expected",
                    "type": "uint256"
                },
                {
                    "internalType": "uint256",
                    "name": "actual",
                    "type": "uint256"
                }
            ],
            "name": "TokenIdMismatch",
            "type": "error"
        },
        {
            "inputs": [],
            "name": "UUPS_UPGRADEABLE_MUST_NOT_BE_CALLED_THROUGH_DELEGATECALL",
            "type": "error"
        },
        {
            "inputs": [
                {
                    "internalType": "address",
                    "name": "user",
                    "type": "address"
                },
                {
                    "internalType": "uint256",
                    "name": "tokenId",
                    "type": "uint256"
                },
                {
                    "internalType": "uint256",
                    "name": "role",
                    "type": "uint256"
                }
            ],
            "name": "UserMissingRoleForToken",
            "type": "error"
        },
        {
            "anonymous": false,
            "inputs": [
                {
                    "indexed": false,
                    "internalType": "address",
                    "name": "previousAdmin",
                    "type": "address"
                },
                {
                    "indexed": false,
                    "internalType": "address",
                    "name": "newAdmin",
                    "type": "address"
                }
            ],
            "name": "AdminChanged",
            "type": "event"
        },
        {
            "anonymous": false,
            "inputs": [
                {
                    "indexed": true,
                    "internalType": "address",
                    "name": "account",
                    "type": "address"
                },
                {
                    "indexed": true,
                    "internalType": "address",
                    "name": "operator",
                    "type": "address"
                },
                {
                    "indexed": false,
                    "internalType": "bool",
                    "name": "approved",
                    "type": "bool"
                }
            ],
            "name": "ApprovalForAll",
            "type": "event"
        },
        {
            "anonymous": false,
            "inputs": [
                {
                    "indexed": true,
                    "internalType": "address",
                    "name": "beacon",
                    "type": "address"
                }
            ],
            "name": "BeaconUpgraded",
            "type": "event"
        },
        {
            "anonymous": false,
            "inputs": [
                {
                    "indexed": true,
                    "internalType": "address",
                    "name": "updater",
                    "type": "address"
                },
                {
                    "indexed": true,
                    "internalType": "enum IZoraCreator1155.ConfigUpdate",
                    "name": "updateType",
                    "type": "uint8"
                },
                {
                    "components": [
                        {
                            "internalType": "address",
                            "name": "owner",
                            "type": "address"
                        },
                        {
                            "internalType": "uint96",
                            "name": "__gap1",
                            "type": "uint96"
                        },
                        {
                            "internalType": "address payable",
                            "name": "fundsRecipient",
                            "type": "address"
                        },
                        {
                            "internalType": "uint96",
                            "name": "__gap2",
                            "type": "uint96"
                        },
                        {
                            "internalType": "contract ITransferHookReceiver",
                            "name": "transferHook",
                            "type": "address"
                        },
                        {
                            "internalType": "uint96",
                            "name": "__gap3",
                            "type": "uint96"
                        }
                    ],
                    "indexed": false,
                    "internalType": "struct IZoraCreator1155TypesV1.ContractConfig",
                    "name": "newConfig",
                    "type": "tuple"
                }
            ],
            "name": "ConfigUpdated",
            "type": "event"
        },
        {
            "anonymous": false,
            "inputs": [
                {
                    "indexed": true,
                    "internalType": "address",
                    "name": "updater",
                    "type": "address"
                },
                {
                    "indexed": false,
                    "internalType": "string",
                    "name": "uri",
                    "type": "string"
                },
                {
                    "indexed": false,
                    "internalType": "string",
                    "name": "name",
                    "type": "string"
                }
            ],
            "name": "ContractMetadataUpdated",
            "type": "event"
        },
        {
            "anonymous": false,
            "inputs": [
                {
                    "indexed": false,
                    "internalType": "contract IRenderer1155",
                    "name": "renderer",
                    "type": "address"
                }
            ],
            "name": "ContractRendererUpdated",
            "type": "event"
        },
        {
            "anonymous": false,
            "inputs": [
                {
                    "indexed": false,
                    "internalType": "uint8",
                    "name": "version",
                    "type": "uint8"
                }
            ],
            "name": "Initialized",
            "type": "event"
        },
        {
            "anonymous": false,
            "inputs": [
                {
                    "indexed": false,
                    "internalType": "address",
                    "name": "lastOwner",
                    "type": "address"
                },
                {
                    "indexed": false,
                    "internalType": "address",
                    "name": "newOwner",
                    "type": "address"
                }
            ],
            "name": "OwnershipTransferred",
            "type": "event"
        },
        {
            "anonymous": false,
            "inputs": [
                {
                    "indexed": true,
                    "internalType": "address",
                    "name": "sender",
                    "type": "address"
                },
                {
                    "indexed": true,
                    "internalType": "address",
                    "name": "minter",
                    "type": "address"
                },
                {
                    "indexed": true,
                    "internalType": "uint256",
                    "name": "tokenId",
                    "type": "uint256"
                },
                {
                    "indexed": false,
                    "internalType": "uint256",
                    "name": "quantity",
                    "type": "uint256"
                },
                {
                    "indexed": false,
                    "internalType": "uint256",
                    "name": "value",
                    "type": "uint256"
                }
            ],
            "name": "Purchased",
            "type": "event"
        },
        {
            "anonymous": false,
            "inputs": [
                {
                    "indexed": true,
                    "internalType": "uint256",
                    "name": "tokenId",
                    "type": "uint256"
                },
                {
                    "indexed": true,
                    "internalType": "address",
                    "name": "renderer",
                    "type": "address"
                },
                {
                    "indexed": true,
                    "internalType": "address",
                    "name": "user",
                    "type": "address"
                }
            ],
            "name": "RendererUpdated",
            "type": "event"
        },
        {
            "anonymous": false,
            "inputs": [
                {
                    "indexed": true,
                    "internalType": "uint256",
                    "name": "tokenId",
                    "type": "uint256"
                },
                {
                    "indexed": true,
                    "internalType": "address",
                    "name": "sender",
                    "type": "address"
                },
                {
                    "indexed": false,
                    "internalType": "string",
                    "name": "newURI",
                    "type": "string"
                },
                {
                    "indexed": false,
                    "internalType": "uint256",
                    "name": "maxSupply",
                    "type": "uint256"
                }
            ],
            "name": "SetupNewToken",
            "type": "event"
        },
        {
            "anonymous": false,
            "inputs": [
                {
                    "indexed": true,
                    "internalType": "address",
                    "name": "operator",
                    "type": "address"
                },
                {
                    "indexed": true,
                    "internalType": "address",
                    "name": "from",
                    "type": "address"
                },
                {
                    "indexed": true,
                    "internalType": "address",
                    "name": "to",
                    "type": "address"
                },
                {
                    "indexed": false,
                    "internalType": "uint256[]",
                    "name": "ids",
                    "type": "uint256[]"
                },
                {
                    "indexed": false,
                    "internalType": "uint256[]",
                    "name": "values",
                    "type": "uint256[]"
                }
            ],
            "name": "TransferBatch",
            "type": "event"
        },
        {
            "anonymous": false,
            "inputs": [
                {
                    "indexed": true,
                    "internalType": "address",
                    "name": "operator",
                    "type": "address"
                },
                {
                    "indexed": true,
                    "internalType": "address",
                    "name": "from",
                    "type": "address"
                },
                {
                    "indexed": true,
                    "internalType": "address",
                    "name": "to",
                    "type": "address"
                },
                {
                    "indexed": false,
                    "internalType": "uint256",
                    "name": "id",
                    "type": "uint256"
                },
                {
                    "indexed": false,
                    "internalType": "uint256",
                    "name": "value",
                    "type": "uint256"
                }
            ],
            "name": "TransferSingle",
            "type": "event"
        },
        {
            "anonymous": false,
            "inputs": [
                {
                    "indexed": false,
                    "internalType": "string",
                    "name": "value",
                    "type": "string"
                },
                {
                    "indexed": true,
                    "internalType": "uint256",
                    "name": "id",
                    "type": "uint256"
                }
            ],
            "name": "URI",
            "type": "event"
        },
        {
            "anonymous": false,
            "inputs": [
                {
                    "indexed": true,
                    "internalType": "uint256",
                    "name": "tokenId",
                    "type": "uint256"
                },
                {
                    "indexed": true,
                    "internalType": "address",
                    "name": "user",
                    "type": "address"
                },
                {
                    "indexed": true,
                    "internalType": "uint256",
                    "name": "permissions",
                    "type": "uint256"
                }
            ],
            "name": "UpdatedPermissions",
            "type": "event"
        },
        {
            "anonymous": false,
            "inputs": [
                {
                    "indexed": true,
                    "internalType": "uint256",
                    "name": "tokenId",
                    "type": "uint256"
                },
                {
                    "indexed": true,
                    "internalType": "address",
                    "name": "user",
                    "type": "address"
                },
                {
                    "components": [
                        {
                            "internalType": "uint32",
                            "name": "royaltyMintSchedule",
                            "type": "uint32"
                        },
                        {
                            "internalType": "uint32",
                            "name": "royaltyBPS",
                            "type": "uint32"
                        },
                        {
                            "internalType": "address",
                            "name": "royaltyRecipient",
                            "type": "address"
                        }
                    ],
                    "indexed": false,
                    "internalType": "struct ICreatorRoyaltiesControl.RoyaltyConfiguration",
                    "name": "configuration",
                    "type": "tuple"
                }
            ],
            "name": "UpdatedRoyalties",
            "type": "event"
        },
        {
            "anonymous": false,
            "inputs": [
                {
                    "indexed": true,
                    "internalType": "address",
                    "name": "from",
                    "type": "address"
                },
                {
                    "indexed": true,
                    "internalType": "uint256",
                    "name": "tokenId",
                    "type": "uint256"
                },
                {
                    "components": [
                        {
                            "internalType": "string",
                            "name": "uri",
                            "type": "string"
                        },
                        {
                            "internalType": "uint256",
                            "name": "maxSupply",
                            "type": "uint256"
                        },
                        {
                            "internalType": "uint256",
                            "name": "totalMinted",
                            "type": "uint256"
                        }
                    ],
                    "indexed": false,
                    "internalType": "struct IZoraCreator1155TypesV1.TokenData",
                    "name": "tokenData",
                    "type": "tuple"
                }
            ],
            "name": "UpdatedToken",
            "type": "event"
        },
        {
            "anonymous": false,
            "inputs": [
                {
                    "indexed": true,
                    "internalType": "address",
                    "name": "implementation",
                    "type": "address"
                }
            ],
            "name": "Upgraded",
            "type": "event"
        },
        {
            "inputs": [],
            "name": "CONTRACT_BASE_ID",
            "outputs": [
                {
                    "internalType": "uint256",
                    "name": "",
                    "type": "uint256"
                }
            ],
            "stateMutability": "view",
            "type": "function"
        },
        {
            "inputs": [],
            "name": "PERMISSION_BIT_ADMIN",
            "outputs": [
                {
                    "internalType": "uint256",
                    "name": "",
                    "type": "uint256"
                }
            ],
            "stateMutability": "view",
            "type": "function"
        },
        {
            "inputs": [],
            "name": "PERMISSION_BIT_FUNDS_MANAGER",
            "outputs": [
                {
                    "internalType": "uint256",
                    "name": "",
                    "type": "uint256"
                }
            ],
            "stateMutability": "view",
            "type": "function"
        },
        {
            "inputs": [],
            "name": "PERMISSION_BIT_METADATA",
            "outputs": [
                {
                    "internalType": "uint256",
                    "name": "",
                    "type": "uint256"
                }
            ],
            "stateMutability": "view",
            "type": "function"
        },
        {
            "inputs": [],
            "name": "PERMISSION_BIT_MINTER",
            "outputs": [
                {
                    "internalType": "uint256",
                    "name": "",
                    "type": "uint256"
                }
            ],
            "stateMutability": "view",
            "type": "function"
        },
        {
            "inputs": [],
            "name": "PERMISSION_BIT_SALES",
            "outputs": [
                {
                    "internalType": "uint256",
                    "name": "",
                    "type": "uint256"
                }
            ],
            "stateMutability": "view",
            "type": "function"
        },
        {
            "inputs": [
                {
                    "internalType": "uint256",
                    "name": "tokenId",
                    "type": "uint256"
                },
                {
                    "internalType": "address",
                    "name": "user",
                    "type": "address"
                },
                {
                    "internalType": "uint256",
                    "name": "permissionBits",
                    "type": "uint256"
                }
            ],
            "name": "addPermission",
            "outputs": [],
            "stateMutability": "nonpayable",
            "type": "function"
        },
        {
            "inputs": [
                {
                    "internalType": "address",
                    "name": "recipient",
                    "type": "address"
                },
                {
                    "internalType": "uint256",
                    "name": "tokenId",
                    "type": "uint256"
                },
                {
                    "internalType": "uint256",
                    "name": "quantity",
                    "type": "uint256"
                },
                {
                    "internalType": "bytes",
                    "name": "data",
                    "type": "bytes"
                }
            ],
            "name": "adminMint",
            "outputs": [],
            "stateMutability": "nonpayable",
            "type": "function"
        },
        {
            "inputs": [
                {
                    "internalType": "address",
                    "name": "recipient",
                    "type": "address"
                },
                {
                    "internalType": "uint256[]",
                    "name": "tokenIds",
                    "type": "uint256[]"
                },
                {
                    "internalType": "uint256[]",
                    "name": "quantities",
                    "type": "uint256[]"
                },
                {
                    "internalType": "bytes",
                    "name": "data",
                    "type": "bytes"
                }
            ],
            "name": "adminMintBatch",
            "outputs": [],
            "stateMutability": "nonpayable",
            "type": "function"
        },
        {
            "inputs": [
                {
                    "internalType": "uint256",
                    "name": "lastTokenId",
                    "type": "uint256"
                }
            ],
            "name": "assumeLastTokenIdMatches",
            "outputs": [],
            "stateMutability": "view",
            "type": "function"
        },
        {
            "inputs": [
                {
                    "internalType": "address",
                    "name": "account",
                    "type": "address"
                },
                {
                    "internalType": "uint256",
                    "name": "id",
                    "type": "uint256"
                }
            ],
            "name": "balanceOf",
            "outputs": [
                {
                    "internalType": "uint256",
                    "name": "",
                    "type": "uint256"
                }
            ],
            "stateMutability": "view",
            "type": "function"
        },
        {
            "inputs": [
                {
                    "internalType": "address[]",
                    "name": "accounts",
                    "type": "address[]"
                },
                {
                    "internalType": "uint256[]",
                    "name": "ids",
                    "type": "uint256[]"
                }
            ],
            "name": "balanceOfBatch",
            "outputs": [
                {
                    "internalType": "uint256[]",
                    "name": "batchBalances",
                    "type": "uint256[]"
                }
            ],
            "stateMutability": "view",
            "type": "function"
        },
        {
            "inputs": [
                {
                    "internalType": "address",
                    "name": "from",
                    "type": "address"
                },
                {
                    "internalType": "uint256[]",
                    "name": "tokenIds",
                    "type": "uint256[]"
                },
                {
                    "internalType": "uint256[]",
                    "name": "amounts",
                    "type": "uint256[]"
                }
            ],
            "name": "burnBatch",
            "outputs": [],
            "stateMutability": "nonpayable",
            "type": "function"
        },
        {
            "inputs": [
                {
                    "internalType": "uint256",
                    "name": "tokenId",
                    "type": "uint256"
                },
                {
                    "internalType": "bytes",
                    "name": "data",
                    "type": "bytes"
                }
            ],
            "name": "callRenderer",
            "outputs": [],
            "stateMutability": "nonpayable",
            "type": "function"
        },
        {
            "inputs": [
                {
                    "internalType": "uint256",
                    "name": "tokenId",
                    "type": "uint256"
                },
                {
                    "internalType": "contract IMinter1155",
                    "name": "salesConfig",
                    "type": "address"
                },
                {
                    "internalType": "bytes",
                    "name": "data",
                    "type": "bytes"
                }
            ],
            "name": "callSale",
            "outputs": [],
            "stateMutability": "nonpayable",
            "type": "function"
        },
        {
            "inputs": [],
            "name": "config",
            "outputs": [
                {
                    "internalType": "address",
                    "name": "owner",
                    "type": "address"
                },
                {
                    "internalType": "uint96",
                    "name": "__gap1",
                    "type": "uint96"
                },
                {
                    "internalType": "address payable",
                    "name": "fundsRecipient",
                    "type": "address"
                },
                {
                    "internalType": "uint96",
                    "name": "__gap2",
                    "type": "uint96"
                },
                {
                    "internalType": "contract ITransferHookReceiver",
                    "name": "transferHook",
                    "type": "address"
                },
                {
                    "internalType": "uint96",
                    "name": "__gap3",
                    "type": "uint96"
                }
            ],
            "stateMutability": "view",
            "type": "function"
        },
        {
            "inputs": [],
            "name": "contractURI",
            "outputs": [
                {
                    "internalType": "string",
                    "name": "",
                    "type": "string"
                }
            ],
            "stateMutability": "view",
            "type": "function"
        },
        {
            "inputs": [],
            "name": "contractVersion",
            "outputs": [
                {
                    "internalType": "string",
                    "name": "",
                    "type": "string"
                }
            ],
            "stateMutability": "pure",
            "type": "function"
        },
        {
            "inputs": [
                {
                    "internalType": "uint256",
                    "name": "",
                    "type": "uint256"
                }
            ],
            "name": "customRenderers",
            "outputs": [
                {
                    "internalType": "contract IRenderer1155",
                    "name": "",
                    "type": "address"
                }
            ],
            "stateMutability": "view",
            "type": "function"
        },
        {
            "inputs": [
                {
                    "internalType": "uint256",
                    "name": "tokenId",
                    "type": "uint256"
                }
            ],
            "name": "getCustomRenderer",
            "outputs": [
                {
                    "internalType": "contract IRenderer1155",
                    "name": "customRenderer",
                    "type": "address"
                }
            ],
            "stateMutability": "view",
            "type": "function"
        },
        {
            "inputs": [
                {
                    "internalType": "uint256",
                    "name": "tokenId",
                    "type": "uint256"
                },
                {
                    "internalType": "address",
                    "name": "user",
                    "type": "address"
                }
            ],
            "name": "getPermissions",
            "outputs": [
                {
                    "internalType": "uint256",
                    "name": "",
                    "type": "uint256"
                }
            ],
            "stateMutability": "view",
            "type": "function"
        },
        {
            "inputs": [
                {
                    "internalType": "uint256",
                    "name": "tokenId",
                    "type": "uint256"
                }
            ],
            "name": "getRoyalties",
            "outputs": [
                {
                    "components": [
                        {
                            "internalType": "uint32",
                            "name": "royaltyMintSchedule",
                            "type": "uint32"
                        },
                        {
                            "internalType": "uint32",
                            "name": "royaltyBPS",
                            "type": "uint32"
                        },
                        {
                            "internalType": "address",
                            "name": "royaltyRecipient",
                            "type": "address"
                        }
                    ],
                    "internalType": "struct ICreatorRoyaltiesControl.RoyaltyConfiguration",
                    "name": "",
                    "type": "tuple"
                }
            ],
            "stateMutability": "view",
            "type": "function"
        },
        {
            "inputs": [
                {
                    "internalType": "uint256",
                    "name": "tokenId",
                    "type": "uint256"
                }
            ],
            "name": "getTokenInfo",
            "outputs": [
                {
                    "components": [
                        {
                            "internalType": "string",
                            "name": "uri",
                            "type": "string"
                        },
                        {
                            "internalType": "uint256",
                            "name": "maxSupply",
                            "type": "uint256"
                        },
                        {
                            "internalType": "uint256",
                            "name": "totalMinted",
                            "type": "uint256"
                        }
                    ],
                    "internalType": "struct IZoraCreator1155TypesV1.TokenData",
                    "name": "",
                    "type": "tuple"
                }
            ],
            "stateMutability": "view",
            "type": "function"
        },
        {
            "inputs": [
                {
                    "internalType": "string",
                    "name": "contractName",
                    "type": "string"
                },
                {
                    "internalType": "string",
                    "name": "newContractURI",
                    "type": "string"
                },
                {
                    "components": [
                        {
                            "internalType": "uint32",
                            "name": "royaltyMintSchedule",
                            "type": "uint32"
                        },
                        {
                            "internalType": "uint32",
                            "name": "royaltyBPS",
                            "type": "uint32"
                        },
                        {
                            "internalType": "address",
                            "name": "royaltyRecipient",
                            "type": "address"
                        }
                    ],
                    "internalType": "struct ICreatorRoyaltiesControl.RoyaltyConfiguration",
                    "name": "defaultRoyaltyConfiguration",
                    "type": "tuple"
                },
                {
                    "internalType": "address payable",
                    "name": "defaultAdmin",
                    "type": "address"
                },
                {
                    "internalType": "bytes[]",
                    "name": "setupActions",
                    "type": "bytes[]"
                }
            ],
            "name": "initialize",
            "outputs": [],
            "stateMutability": "nonpayable",
            "type": "function"
        },
        {
            "inputs": [
                {
                    "internalType": "address",
                    "name": "user",
                    "type": "address"
                },
                {
                    "internalType": "uint256",
                    "name": "tokenId",
                    "type": "uint256"
                },
                {
                    "internalType": "uint256",
                    "name": "role",
                    "type": "uint256"
                }
            ],
            "name": "isAdminOrRole",
            "outputs": [
                {
                    "internalType": "bool",
                    "name": "",
                    "type": "bool"
                }
            ],
            "stateMutability": "view",
            "type": "function"
        },
        {
            "inputs": [
                {
                    "internalType": "address",
                    "name": "account",
                    "type": "address"
                },
                {
                    "internalType": "address",
                    "name": "operator",
                    "type": "address"
                }
            ],
            "name": "isApprovedForAll",
            "outputs": [
                {
                    "internalType": "bool",
                    "name": "",
                    "type": "bool"
                }
            ],
            "stateMutability": "view",
            "type": "function"
        },
        {
            "inputs": [
                {
                    "internalType": "uint256",
                    "name": "",
                    "type": "uint256"
                }
            ],
            "name": "metadataRendererContract",
            "outputs": [
                {
                    "internalType": "address",
                    "name": "",
                    "type": "address"
                }
            ],
            "stateMutability": "view",
            "type": "function"
        },
        {
            "inputs": [
                {
                    "internalType": "contract IMinter1155",
                    "name": "minter",
                    "type": "address"
                },
                {
                    "internalType": "uint256",
                    "name": "tokenId",
                    "type": "uint256"
                },
                {
                    "internalType": "uint256",
                    "name": "quantity",
                    "type": "uint256"
                },
                {
                    "internalType": "bytes",
                    "name": "minterArguments",
                    "type": "bytes"
                }
            ],
            "name": "mint",
            "outputs": [],
            "stateMutability": "payable",
            "type": "function"
        },
        {
            "inputs": [],
            "name": "mintFee",
            "outputs": [
                {
                    "internalType": "uint256",
                    "name": "",
                    "type": "uint256"
                }
            ],
            "stateMutability": "view",
            "type": "function"
        },
        {
            "inputs": [],
            "name": "mintFeeRecipient",
            "outputs": [
                {
                    "internalType": "address",
                    "name": "",
                    "type": "address"
                }
            ],
            "stateMutability": "view",
            "type": "function"
        },
        {
            "inputs": [
                {
                    "internalType": "bytes[]",
                    "name": "data",
                    "type": "bytes[]"
                }
            ],
            "name": "multicall",
            "outputs": [
                {
                    "internalType": "bytes[]",
                    "name": "results",
                    "type": "bytes[]"
                }
            ],
            "stateMutability": "nonpayable",
            "type": "function"
        },
        {
            "inputs": [],
            "name": "name",
            "outputs": [
                {
                    "internalType": "string",
                    "name": "",
                    "type": "string"
                }
            ],
            "stateMutability": "view",
            "type": "function"
        },
        {
            "inputs": [],
            "name": "nextTokenId",
            "outputs": [
                {
                    "internalType": "uint256",
                    "name": "",
                    "type": "uint256"
                }
            ],
            "stateMutability": "view",
            "type": "function"
        },
        {
            "inputs": [],
            "name": "owner",
            "outputs": [
                {
                    "internalType": "address",
                    "name": "",
                    "type": "address"
                }
            ],
            "stateMutability": "view",
            "type": "function"
        },
        {
            "inputs": [
                {
                    "internalType": "uint256",
                    "name": "",
                    "type": "uint256"
                },
                {
                    "internalType": "address",
                    "name": "",
                    "type": "address"
                }
            ],
            "name": "permissions",
            "outputs": [
                {
                    "internalType": "uint256",
                    "name": "",
                    "type": "uint256"
                }
            ],
            "stateMutability": "view",
            "type": "function"
        },
        {
            "inputs": [],
            "name": "proxiableUUID",
            "outputs": [
                {
                    "internalType": "bytes32",
                    "name": "",
                    "type": "bytes32"
                }
            ],
            "stateMutability": "view",
            "type": "function"
        },
        {
            "inputs": [
                {
                    "internalType": "uint256",
                    "name": "tokenId",
                    "type": "uint256"
                },
                {
                    "internalType": "address",
                    "name": "user",
                    "type": "address"
                },
                {
                    "internalType": "uint256",
                    "name": "permissionBits",
                    "type": "uint256"
                }
            ],
            "name": "removePermission",
            "outputs": [],
            "stateMutability": "nonpayable",
            "type": "function"
        },
        {
            "inputs": [
                {
                    "internalType": "uint256",
                    "name": "",
                    "type": "uint256"
                }
            ],
            "name": "royalties",
            "outputs": [
                {
                    "internalType": "uint32",
                    "name": "royaltyMintSchedule",
                    "type": "uint32"
                },
                {
                    "internalType": "uint32",
                    "name": "royaltyBPS",
                    "type": "uint32"
                },
                {
                    "internalType": "address",
                    "name": "royaltyRecipient",
                    "type": "address"
                }
            ],
            "stateMutability": "view",
            "type": "function"
        },
        {
            "inputs": [
                {
                    "internalType": "uint256",
                    "name": "tokenId",
                    "type": "uint256"
                },
                {
                    "internalType": "uint256",
                    "name": "salePrice",
                    "type": "uint256"
                }
            ],
            "name": "royaltyInfo",
            "outputs": [
                {
                    "internalType": "address",
                    "name": "receiver",
                    "type": "address"
                },
                {
                    "internalType": "uint256",
                    "name": "royaltyAmount",
                    "type": "uint256"
                }
            ],
            "stateMutability": "view",
            "type": "function"
        },
        {
            "inputs": [
                {
                    "internalType": "address",
                    "name": "from",
                    "type": "address"
                },
                {
                    "internalType": "address",
                    "name": "to",
                    "type": "address"
                },
                {
                    "internalType": "uint256[]",
                    "name": "ids",
                    "type": "uint256[]"
                },
                {
                    "internalType": "uint256[]",
                    "name": "amounts",
                    "type": "uint256[]"
                },
                {
                    "internalType": "bytes",
                    "name": "data",
                    "type": "bytes"
                }
            ],
            "name": "safeBatchTransferFrom",
            "outputs": [],
            "stateMutability": "nonpayable",
            "type": "function"
        },
        {
            "inputs": [
                {
                    "internalType": "address",
                    "name": "from",
                    "type": "address"
                },
                {
                    "internalType": "address",
                    "name": "to",
                    "type": "address"
                },
                {
                    "internalType": "uint256",
                    "name": "id",
                    "type": "uint256"
                },
                {
                    "internalType": "uint256",
                    "name": "amount",
                    "type": "uint256"
                },
                {
                    "internalType": "bytes",
                    "name": "data",
                    "type": "bytes"
                }
            ],
            "name": "safeTransferFrom",
            "outputs": [],
            "stateMutability": "nonpayable",
            "type": "function"
        },
        {
            "inputs": [
                {
                    "internalType": "address",
                    "name": "operator",
                    "type": "address"
                },
                {
                    "internalType": "bool",
                    "name": "approved",
                    "type": "bool"
                }
            ],
            "name": "setApprovalForAll",
            "outputs": [],
            "stateMutability": "nonpayable",
            "type": "function"
        },
        {
            "inputs": [
                {
                    "internalType": "address payable",
                    "name": "fundsRecipient",
                    "type": "address"
                }
            ],
            "name": "setFundsRecipient",
            "outputs": [],
            "stateMutability": "nonpayable",
            "type": "function"
        },
        {
            "inputs": [
                {
                    "internalType": "address",
                    "name": "newOwner",
                    "type": "address"
                }
            ],
            "name": "setOwner",
            "outputs": [],
            "stateMutability": "nonpayable",
            "type": "function"
        },
        {
            "inputs": [
                {
                    "internalType": "uint256",
                    "name": "tokenId",
                    "type": "uint256"
                },
                {
                    "internalType": "contract IRenderer1155",
                    "name": "renderer",
                    "type": "address"
                }
            ],
            "name": "setTokenMetadataRenderer",
            "outputs": [],
            "stateMutability": "nonpayable",
            "type": "function"
        },
        {
            "inputs": [
                {
                    "internalType": "contract ITransferHookReceiver",
                    "name": "transferHook",
                    "type": "address"
                }
            ],
            "name": "setTransferHook",
            "outputs": [],
            "stateMutability": "nonpayable",
            "type": "function"
        },
        {
            "inputs": [
                {
                    "internalType": "string",
                    "name": "newURI",
                    "type": "string"
                },
                {
                    "internalType": "uint256",
                    "name": "maxSupply",
                    "type": "uint256"
                }
            ],
            "name": "setupNewToken",
            "outputs": [
                {
                    "internalType": "uint256",
                    "name": "",
                    "type": "uint256"
                }
            ],
            "stateMutability": "nonpayable",
            "type": "function"
        },
        {
            "inputs": [
                {
                    "internalType": "uint256",
                    "name": "tokenId",
                    "type": "uint256"
                },
                {
                    "internalType": "uint256",
                    "name": "totalSupply",
                    "type": "uint256"
                },
                {
                    "internalType": "uint256",
                    "name": "mintAmount",
                    "type": "uint256"
                }
            ],
            "name": "supplyRoyaltyInfo",
            "outputs": [
                {
                    "internalType": "address",
                    "name": "receiver",
                    "type": "address"
                },
                {
                    "internalType": "uint256",
                    "name": "royaltyAmount",
                    "type": "uint256"
                }
            ],
            "stateMutability": "view",
            "type": "function"
        },
        {
            "inputs": [
                {
                    "internalType": "bytes4",
                    "name": "interfaceId",
                    "type": "bytes4"
                }
            ],
            "name": "supportsInterface",
            "outputs": [
                {
                    "internalType": "bool",
                    "name": "",
                    "type": "bool"
                }
            ],
            "stateMutability": "view",
            "type": "function"
        },
        {
            "inputs": [],
            "name": "symbol",
            "outputs": [
                {
                    "internalType": "string",
                    "name": "",
                    "type": "string"
                }
            ],
            "stateMutability": "pure",
            "type": "function"
        },
        {
            "inputs": [
                {
                    "internalType": "string",
                    "name": "_newURI",
                    "type": "string"
                },
                {
                    "internalType": "string",
                    "name": "_newName",
                    "type": "string"
                }
            ],
            "name": "updateContractMetadata",
            "outputs": [],
            "stateMutability": "nonpayable",
            "type": "function"
        },
        {
            "inputs": [
                {
                    "internalType": "uint256",
                    "name": "tokenId",
                    "type": "uint256"
                },
                {
                    "components": [
                        {
                            "internalType": "uint32",
                            "name": "royaltyMintSchedule",
                            "type": "uint32"
                        },
                        {
                            "internalType": "uint32",
                            "name": "royaltyBPS",
                            "type": "uint32"
                        },
                        {
                            "internalType": "address",
                            "name": "royaltyRecipient",
                            "type": "address"
                        }
                    ],
                    "internalType": "struct ICreatorRoyaltiesControl.RoyaltyConfiguration",
                    "name": "newConfiguration",
                    "type": "tuple"
                }
            ],
            "name": "updateRoyaltiesForToken",
            "outputs": [],
            "stateMutability": "nonpayable",
            "type": "function"
        },
        {
            "inputs": [
                {
                    "internalType": "uint256",
                    "name": "tokenId",
                    "type": "uint256"
                },
                {
                    "internalType": "string",
                    "name": "_newURI",
                    "type": "string"
                }
            ],
            "name": "updateTokenURI",
            "outputs": [],
            "stateMutability": "nonpayable",
            "type": "function"
        },
        {
            "inputs": [
                {
                    "internalType": "address",
                    "name": "newImplementation",
                    "type": "address"
                }
            ],
            "name": "upgradeTo",
            "outputs": [],
            "stateMutability": "nonpayable",
            "type": "function"
        },
        {
            "inputs": [
                {
                    "internalType": "address",
                    "name": "newImplementation",
                    "type": "address"
                },
                {
                    "internalType": "bytes",
                    "name": "data",
                    "type": "bytes"
                }
            ],
            "name": "upgradeToAndCall",
            "outputs": [],
            "stateMutability": "payable",
            "type": "function"
        },
        {
            "inputs": [
                {
                    "internalType": "uint256",
                    "name": "tokenId",
                    "type": "uint256"
                }
            ],
            "name": "uri",
            "outputs": [
                {
                    "internalType": "string",
                    "name": "",
                    "type": "string"
                }
            ],
            "stateMutability": "view",
            "type": "function"
        },
        {
            "inputs": [],
            "name": "withdraw",
            "outputs": [],
            "stateMutability": "nonpayable",
            "type": "function"
        }
    ],
    "bytecode": {
        "object": "0x61012034620001f657601f620059ff38819003918201601f1916830191906001600160401b03831184841017620001fb578160609285926040958652833981010312620001f65781519162000064826200005c6020840162000211565b920162000211565b9267016345785d8a0000811015620001df576001600160a01b03918083161580620001d5575b620001c45760a0526080523060c05261271060e0526000549060ff8260081c16159182801590620001b7575b806200019d575b6200018c5760ff1981166001176000558262000179575b50610100931683526200013e575b516157d891826200022783396080518281816128580152613f1a015260a0518281816123490152612403015260c051828181612f800152818161303a015261360d015260e05182613c1f0152518181816130e101526136be0152f35b61ff0019600054166000557f7f26b83ff96e1f2b6a682f133852f6798a09c465da95921460cefb38474024986020825160018152a1620000e2565b61ffff19166101011760005538620000d4565b8351633d5c224160e11b8152600490fd5b50303b151580620000bd5750600160ff82161415620000bd565b5060ff81161515620000b6565b835163c64a448960e01b8152600490fd5b508115156200008a565b602490835190637f19df9f60e11b82526004820152fd5b600080fd5b634e487b7160e01b600052604160045260246000fd5b51906001600160a01b0382168203620001f65756fe6080604052600436101561001257600080fd5b60003560e01c8062fdd58e1461421e578063011442011461420257806301ffc9a7146140cc57806306fdde0314613ff85780630e89341c14613fd957806310a7eb5d14613f3d57806313966db514613f0257806313af403514613e6d57806318711c7d14613e5157806318e97fd114613cc057806323bd038614613c6d5780632a55205a14613bde5780632eb2c2d614613841578063300ecdb9146134875780633659cfe6146135e75780633ccfd60b146134d15780634913162d146134875780634e1273f4146133215780634f1ef28614612ffa57806352d1902d14612f655780635d0f6cba14612dd15780636661a9ba14612c0c57806369a5b30214612bd65780636b20c45414612902578063731133e91461238c57806375794a3c1461236d578063765b0c361461232957806379502c55146122cd5780637f2dc61c146121425780637f77f574146120f25780638621ea4b146120b35780638a08eb4c14611ab75780638c7a63ae14611a405780638da5cb5b14611a185780638ec998a014611993578063929a71281461197857806395d89b411461191a5780639c5c63c91461186e578063a0a8e46014611810578063a22cb46514611759578063a453eaf01461173d578063ac9650d814611685578063afed7e9e14611457578063bb3bafd614611400578063c0464356146113e4578063c238d1ee14611388578063d1ad846b14610ef8578063d258609a14610b99578063d904b94a1461099e578063dd15e05f14610968578063e72878b41461090c578063e74d86c2146108dd578063e8a3d485146108a9578063e985e9c514610852578063ef71c82e146105ce578063f1b0d6bb146105b25763f242432a1461028e57600080fd5b346105ad5760a06003193601126105ad576102a761424d565b6102af614263565b9060643560443560843567ffffffffffffffff81116105ad576102d690369060040161439f565b6001600160a01b03809416933385141580610588575b61055e5785168015610534578260005260209560978752604060002086600052875260406000205485811061050a578590856000526097895260406000208860005289520360406000205583600052609787526040600020826000528752604060002061035a868254614632565b90558186604051868152878a8201527fc3d58168c5ae7397731d063d5bbf3d657854427343f4c083240f7aacaa2d0f6260403392a43b61039657005b6103f39360008794604051968795869485937ff23a6e61000000000000000000000000000000000000000000000000000000009b8c865233600487015260248601526044850152606484015260a0608484015260a483019061429c565b03925af1600091816104db575b5061048857505060019061041261469c565b6308c379a01461044f575b50610425575b005b60046040517fefab6922000000000000000000000000000000000000000000000000000000008152fd5b6104576146ba565b9081610463575061041d565b61048460405192839262461bcd60e51b84526004840152602483019061429c565b0390fd5b7fffffffff00000000000000000000000000000000000000000000000000000000161490506104235760046040517ffeff9fd4000000000000000000000000000000000000000000000000000000008152fd5b6104fc919250843d8611610503575b6104f48183614329565b810190614664565b9038610400565b503d6104ea565b60046040517fdd543d52000000000000000000000000000000000000000000000000000000008152fd5b60046040517f714fd844000000000000000000000000000000000000000000000000000000008152fd5b60046040517ff8ba8054000000000000000000000000000000000000000000000000000000008152fd5b5084600052609860205260406000203360005260205260ff60406000205416156102ec565b600080fd5b346105ad5760006003193601126105ad57602060405160048152f35b346105ad5760406003193601126105ad5767ffffffffffffffff6004358181116105ad5761060090369060040161439f565b6024358281116105ad5761061890369060040161439f565b3360009081527f5f4301e3e862ad13c0503d3de32ba4e2e40c90733d1da23c9df4d0addbcf6508602090815260409091205491939091601216158015906101fe9061082e575b501561080957600080526101c6825260406000209083519081116107f357610686825461476a565b601f81116107ad575b5082601f821160011461072057927f74b7c2afa3f89c562b59674a101e2c48bceeb27cdb620afefa14446f1ffa487b9492826107109361070196600091610715575b506000198260011b9260031b1c19161790555b6106ed866148a0565b60405193849360408552604085019061429c565b9083820390840152339561429c565b0390a2005b9050850151896106d1565b601f1982169083600052846000209160005b81811061079657508361070196937f74b7c2afa3f89c562b59674a101e2c48bceeb27cdb620afefa14446f1ffa487b989693610710966001941061077d575b5050811b0190556106e4565b87015160001960f88460031b161c191690558980610771565b91928660018192868b015181550194019201610732565b8260005283600020601f830160051c8101918584106107e9575b601f0160051c01905b8181106107dd575061068f565b600081556001016107d0565b90915081906107c7565b634e487b7160e01b600052604160045260246000fd5b6064604051634baa2a4d60e01b81523360048201526000602482015260106044820152fd5b9050600080528252604060002033600052825260026040600020541615158561065e565b346105ad5760406003193601126105ad5761086b61424d565b610873614263565b906001600160a01b03809116600052609860205260406000209116600052602052602060ff604060002054166040519015158152f35b346105ad5760006003193601126105ad576108d96108c56150aa565b60405191829160208352602083019061429c565b0390f35b346105ad5760206003193601126105ad5760206108fb6004356154b1565b6001600160a01b0360405191168152f35b346105ad5760206003193601126105ad576004356000196101c854019080820361093257005b604491604051917f4fa09b3f00000000000000000000000000000000000000000000000000000000835260048301526024820152fd5b346105ad5760206003193601126105ad5760043560005261012d60205260206001600160a01b0360406000205416604051908152f35b346105ad5760606003193601126105ad576004356109ba614263565b9060443567ffffffffffffffff81116105ad576109db90369060040161439f565b90806000526101fe926020938085526040600020336000528552600a604060002054161590811591610b75575b5015610b50576001600160a01b03610a2291169182614a73565b6040517f01ffc9a70000000000000000000000000000000000000000000000000000000081527f6890e5b30000000000000000000000000000000000000000000000000000000060048201528381602481855afa908115610b4457600091610b17575b5015610ae657816000929183858194519301915af190610aa3614581565b9115610aab57005b6104846040519283927fa5fa8d2b0000000000000000000000000000000000000000000000000000000084526004840152602483019061429c565b602490604051907fe15b8e060000000000000000000000000000000000000000000000000000000082526004820152fd5b610b379150843d8611610b3d575b610b2f8183614329565b810190614c81565b84610a85565b503d610b25565b6040513d6000823e3d90fd5b60648260405190634baa2a4d60e01b8252336004830152602482015260086044820152fd5b90506000805284526040600020336000528452600260406000205416151585610a08565b346105ad5760406003193601126105ad5767ffffffffffffffff6004358181116105ad57610bcb90369060040161439f565b3360009081527f5f4301e3e862ad13c0503d3de32ba4e2e40c90733d1da23c9df4d0addbcf6508602052604090205460061615801590610ebe575b15610e9957610c1361484b565b6101c89081549160018301905560405192610c2d846142dd565b818452602435602085015260006040850152826000526101c6602052604060002090845180519182116107f357610c64835461476a565b601f8111610e51575b50916020959185938790601f8311600114610de6576000919083610ddb575b50506000198260011b9260031b1c19161781555b858201516001820155600260408301519101557f5086d1bcea28999da9875111e3592688fbfa821db63214c695ca35768080c2fe60405180610ce33394826144cd565b0390a3816000526101fe83526040600020336000528352600260406000205417826000526101fe845260406000203360005284528060406000205533837f35fb03d0d293ef5b362761900725ce891f8f766b5a662cdd445372355448e7ca600080a48051610d9e575b817f1b944478023872bf91b25a13fdba3a686fdb1bf4dbb872f850240fad4b8cc068610d836040519360408552604085019061429c565b92602435868201528033940390a36001606555604051908152f35b817f6bb7ff708619ba0610cba295a58592e0451dee2622938c8755667688daf3529b60405185815280610dd38782018661429c565b0390a2610d4c565b015190508880610c8c565b9083600052886000209160005b601f1985168110610e3757509083929183601f196001961610610e1e575b505050811b018155610ca0565b015160001960f88460031b161c19169055888080610e11565b818301518455899750600190930192918a01918a01610df3565b836000526020600020601f840160051c81019160208510610e8f575b601f0160051c01905b818110610e835750610c6d565b60008155600101610e76565b9091508190610e6d565b6064604051634baa2a4d60e01b81523360048201526000602482015260046044820152fd5b503360009081527f5f4301e3e862ad13c0503d3de32ba4e2e40c90733d1da23c9df4d0addbcf650860205260409020546002161515610c06565b346105ad576003196080813601126105ad57610f1261424d565b67ffffffffffffffff6024358181116105ad57610f33903690600401614423565b906044358181116105ad57610f4c903690600401614423565b906064359081116105ad57610f6590369060040161439f565b90610f6e61484b565b3360009081527f5f4301e3e862ad13c0503d3de32ba4e2e40c90733d1da23c9df4d0addbcf65086020908152604082205460061615969092915b8551811015610fdd57610fbf9088610fc457614bf6565b610fa8565b610fd8610fd18289614608565b5133614a73565b614bf6565b50908491866001600160a01b039081811691821561135e5785519085518203611334576101cb541680611289575b5060005b8181106112465750508160006040517f4a39dc06d4c0dbc64b70af90fd698a233a518aa5d07e595d983b8c0526c8f7fb33918061104d8a8c8361463f565b0390a43b6110f6575b505060005b82518110156110ef57806110bd61108b876110796110ea9588614608565b516110848588614608565b5190614f78565b6110b36110988488614608565b516110ad836110a7878a614608565b51614632565b90614eda565b6110a78386614608565b6110c78286614608565b516000526101c686526110e36002604060002001918254614632565b9055614bf6565b61105b565b6001606555005b8460405180928160008161116c7fbc197c81000000000000000000000000000000000000000000000000000000009889835233600484015283602484015260a0604484015261115c61114c8d60a486019061443e565b828582030160648601528c61443e565b908382030160848401528d61429c565b03925af160009181611227575b506111d6575050600161118a61469c565b6308c379a0146111a1575b610425575b8480611056565b6111a96146ba565b806111b45750611195565b8461048460405192839262461bcd60e51b84526004840152602483019061429c565b7fffffffff00000000000000000000000000000000000000000000000000000000161461119a5760046040517ffeff9fd4000000000000000000000000000000000000000000000000000000008152fd5b61123f919250863d8811610503576104f48183614329565b9087611179565b8061125360019288614608565b5161125e828a614608565b5160005260978a526040600020866000528a526112816040600020918254614632565b90550161100f565b803b156105ad5760006112f787928983886113168f6113068d6040519a8b998a9889977f80b10ace0000000000000000000000000000000000000000000000000000000089523060048a01523360248a01528960448a0152606489015260e0608489015260e488019061443e565b918683030160a487015261443e565b908d8483030160c485015261429c565b03925af18015610b44571561100b5761132e906142f9565b8861100b565b60046040517ff9532c39000000000000000000000000000000000000000000000000000000008152fd5b60046040517f8113ddc8000000000000000000000000000000000000000000000000000000008152fd5b346105ad5760806003193601126105ad576113a161424d565b6024356064359167ffffffffffffffff83116105ad576113c86110ef93369060040161439f565b916113d161484b565b6113db8133614a73565b60443591614c99565b346105ad5760006003193601126105ad57602060405160028152f35b346105ad5760206003193601126105ad576108d961141f6004356154e4565b6040519182918291909160406001600160a01b0381606084019563ffffffff8082511686526020820151166020860152015116910152565b346105ad5760806003193601126105ad5760043560607fffffffffffffffffffffffffffffffffffffffffffffffffffffffffffffffdc3601126105ad57604051906114a2826142dd565b63ffffffff60243581811681036105ad57835260443581811681036105ad576020808501918252606435906001600160a01b0380831683036105ad5760408701928352856000526101fe80835260406000203360005283526022604060002054161590811591611661575b501561163d57600185885116146115fb578251161580611625575b6115fb578460005261016081527fffffffff000000000000000000000000000000000000000000000000000000007bffffffffffffffffffffffffffffffffffffffff000000000000000067ffffffff000000006040600020968951169387549651901b16935160401b16931617171790557f5837d55897cfc337f160a71d7b63a047abd50a3a8834f1c5d70f338846358c6d604051806115f633958291909160406001600160a01b0381606084019563ffffffff8082511686526020820151166020860152015116910152565b0390a3005b60046040517f0d9b92f1000000000000000000000000000000000000000000000000000000008152fd5b50855184161515806115285750838351161515611528565b6064868360405191634baa2a4d60e01b835233600484015260248301526044820152fd5b9050600080528252604060002033600052825260026040600020541615158861150d565b346105ad576020806003193601126105ad5760043567ffffffffffffffff81116105ad576116ba6116c091369060040161449c565b906155d7565b6040519082820192808352815180945260408301938160408260051b8601019301916000955b8287106116f35785850386f35b90919293828061172d837fffffffffffffffffffffffffffffffffffffffffffffffffffffffffffffffc08a60019603018652885161429c565b96019201960195929190926116e6565b346105ad5760006003193601126105ad57602060405160108152f35b346105ad5760406003193601126105ad5761177261424d565b602435908115158092036105ad576001600160a01b0316908133146117e657336000526098602052604060002082600052602052604060002060ff1981541660ff83161790556040519081527f17307eab39ab6107e8899845ad3d59bd9653f200f220920489ca2b5937696c3160203392a3005b60046040517fd67f41b2000000000000000000000000000000000000000000000000000000008152fd5b346105ad5760006003193601126105ad576108d9604051611830816142c1565b600581527f312e332e30000000000000000000000000000000000000000000000000000000602082015260405191829160208352602083019061429c565b346105ad5760406003193601126105ad5760043560243567ffffffffffffffff81116105ad576000916001600160a01b036118c16118b18594369060040161439f565b926118bc81336149eb565b6154b1565b1682602083519301915af16118d4614581565b90156118dc57005b610484906040519182917fa5fa8d2b00000000000000000000000000000000000000000000000000000000835260206004840152602483019061429c565b346105ad5760006003193601126105ad5760405160208082528160605191828183015260005b838110611962575050601f19601f836000604080968601015201168101030190f35b6080810151858201604001528492508101611940565b346105ad5760006003193601126105ad576020604051818152f35b346105ad576119a136614472565b916119ac8133614b93565b806000526101fe92836020526001600160a01b03604060002093169283600052602052604060002054179281600052602052604060002082600052602052826040600020557f35fb03d0d293ef5b362761900725ce891f8f766b5a662cdd445372355448e7ca600080a4005b346105ad5760006003193601126105ad5760206001600160a01b036101c95416604051908152f35b346105ad5760206003193601126105ad57600060408051611a60816142dd565b6060815282602082015201526004356000526101c66020526108d96040600020600260405191611a8f836142dd565b611a98816147a4565b83526001810154602084015201546040820152604051918291826144cd565b346105ad5760e06003193601126105ad5760043567ffffffffffffffff81116105ad57611ae890369060040161439f565b60243567ffffffffffffffff81116105ad57611b0890369060040161439f565b60607fffffffffffffffffffffffffffffffffffffffffffffffffffffffffffffffbc3601126105ad57604051611b3e816142dd565b60443563ffffffff811681036105ad57815260643563ffffffff811681036105ad5760208201526084356001600160a01b03811681036105ad5760408201526001600160a01b0360a4351660a435036105ad5760c43567ffffffffffffffff81116105ad57611bb190369060040161449c565b9091611bbb61484b565b60005493600885901c60ff16158015906120a7575b8061208f575b61206557600160ff1986161760005560ff8560081c1615612036575b60ff60005460081c161561200c576001606555611c196001600160a01b0360a4351661544a565b6101c89081549160018301905560405190611c33826142dd565b81526000602082015260006040820152816000526101c66020526040600020815180519067ffffffffffffffff82116107f3578190611c72845461476a565b601f8111611fbc575b50602090601f8311600114611f5057600092611f45575b50506000198260011b9260031b1c19161781555b60208201516001820155600260408301519101557f5086d1bcea28999da9875111e3592688fbfa821db63214c695ca35768080c2fe60405180611cea3394826144cd565b0390a3600163ffffffff825116146115fb576001600160a01b036040820151161580611f22575b6115fb5760ff94611e1c9160008052610160602052604060002063ffffffff82511681549067ffffffff00000000602085015160201b16907fffffffff000000000000000000000000000000000000000000000000000000007bffffffffffffffffffffffffffffffffffffffff0000000000000000604087015160401b169316171717905560007f5837d55897cfc337f160a71d7b63a047abd50a3a8834f1c5d70f338846358c6d60405180611df533958291909160406001600160a01b0381606084019563ffffffff8082511686526020820151166020860152015116910152565b0390a3611e0c6001600160a01b0360a435166152bc565b611e1760a4356153a2565b6148a0565b80611e8c575b505060081c1615611e34576001606555005b7fffffffffffffffffffffffffffffffffffffffffffffffffffffffffffff00ff600054166000557f7f26b83ff96e1f2b6a682f133852f6798a09c465da95921460cefb3847402498602060405160018152a16110ef565b611e9e91611e993361544a565b6155d7565b503360008181527f5f4301e3e862ad13c0503d3de32ba4e2e40c90733d1da23c9df4d0addbcf65086020526040812080547ffffffffffffffffffffffffffffffffffffffffffffffffffffffffffffffffd169081905591907f35fb03d0d293ef5b362761900725ce891f8f766b5a662cdd445372355448e7ca8180a48280611e22565b50805163ffffffff16151580611d11575063ffffffff6020820151161515611d11565b015190508a80611c92565b9250836000526020600020906000935b601f1984168510611fa1576001945083601f19811610611f88575b505050811b018155611ca6565b015160001960f88460031b161c191690558a8080611f7b565b81810151835560209485019460019093019290910190611f60565b909150836000526020600020601f840160051c810160208510612005575b90849392915b601f830160051c82018110611ff6575050611c7b565b60008155859450600101611fe0565b5080611fda565b60046040517f96bfb100000000000000000000000000000000000000000000000000000000008152fd5b6101017fffffffffffffffffffffffffffffffffffffffffffffffffffffffffffff0000861617600055611bf2565b60046040517f7ab84482000000000000000000000000000000000000000000000000000000008152fd5b50303b151580611bd65750600160ff86161415611bd6565b5060ff85161515611bd0565b346105ad5760606003193601126105ad576120d5604435602435600435615563565b604080516001600160a01b03939093168352602083019190915290f35b346105ad5760206003193601126105ad5760043560005261016060205260606040600020546001600160a01b036040519163ffffffff80821684528160201c16602084015260401c166040820152f35b346105ad5760206003193601126105ad576004356001600160a01b0381168091036105ad5761217033614afb565b80612215575b6101cb907fffffffffffffffffffffffff000000000000000000000000000000000000000082541617905560026040517f3be6d3a1d957610f7e900c66889b874cdc9f0c22901aa8be6ec3d2d04c14ca0f3391806115f6819060c082019160a06101c9546001600160a01b03908181168452821c60208401526101ca548181166040850152821c60608401526101cb549081166080840152811c910152565b6040517f01ffc9a70000000000000000000000000000000000000000000000000000000081527f80b10ace000000000000000000000000000000000000000000000000000000006004820152602081602481855afa908115610b44576000916122af575b5061217657602490604051907f17ce95600000000000000000000000000000000000000000000000000000000082526004820152fd5b6122c7915060203d8111610b3d57610b2f8183614329565b82612279565b346105ad5760006003193601126105ad5760c06101c9546101ca54906101cb5490604051926001600160a01b0391828116855260a01c6020850152818116604085015260a01c60608401528116608083015260a01c60a0820152f35b346105ad5760006003193601126105ad5760206040516001600160a01b037f0000000000000000000000000000000000000000000000000000000000000000168152f35b346105ad5760006003193601126105ad5760206101c854604051908152f35b60806003193601126105ad576123a061424d565b604435906064359067ffffffffffffffff82116105ad57366023830112156105ad57816004013567ffffffffffffffff81116105ad5736602482850101116105ad576123ea61484b565b6123ff6024356001600160a01b038416614a73565b34927f00000000000000000000000000000000000000000000000000000000000000006001600160a01b038116612851575b50602460c4600092601f19601f8660405197889687957f6890e5b30000000000000000000000000000000000000000000000000000000087523360048801528135828801528d60448801528c606488015260a060848801528260a488015201868601378685828601015201168101030181836001600160a01b0387165af1908115610b44576000916126ba575b50519060005b8251811015612671576124d78184614608565b51516124e281614c4d565b6124eb81614c4d565b600181036125af57506020806125018386614608565b510151906040828051810103126105ad5761251f6040918301614c6d565b910151908186116125855760008080936001600160a01b038294166204baf0f1612547614581565b501561255b5761255690614bf6565b6124c4565b60046040517fe373ab5c000000000000000000000000000000000000000000000000000000008152fd5b60046040517f644f3cdc000000000000000000000000000000000000000000000000000000008152fd5b806125bb600292614c4d565b0361266857602090816125ce8286614608565b51015160609283828051810103126105ad576125eb908201614c6d565b926040820151910151906024351515908161265b575b506126315761255692610fd8916040519161261b8361430d565b600083526001600160a01b036024359116614c99565b60046040517f4cdcfbf9000000000000000000000000000000000000000000000000000000008152fd5b9050602435141588612601565b61255690614bf6565b50836040519081523460208201526001600160a01b036024359216907fb362243af1e2070d7d5bf8d713f2e0fab64203f1b71462afbe20572909788c5e60403392a46001606555005b3d9150816000823e6126cc8282614329565b60208183810103126105ad5780519067ffffffffffffffff82116105ad57604082820184830103126105ad5760405192612705846142c1565b828201519067ffffffffffffffff82116105ad57808301601f83868601010112156105ad57818484010151612739816143bd565b926127476040519485614329565b818452602084019083860160208460051b838a8a01010101116105ad576020818888010101915b60208460051b838a8a01010101831061279b575050505050906020929184520101516020820152846124be565b82519067ffffffffffffffff82116105ad576040601f1983858c8c010101888b010301126105ad57604051916127d0836142c1565b602081858c8c010101015160038110156105ad578352604081858c8c01010101519167ffffffffffffffff83116105ad57878a018b8b01860183018401603f0112156105ad576020936128408c8c6040889788978b8f8501958a848484848a010101010151950101010101614c05565b83820152815201930192905061276e565b9361287c867f0000000000000000000000000000000000000000000000000000000000000000614c3a565b908181039081116128ec5794600080808085856201adb0f161289c614581565b50156128a85750612431565b6040517f4b789d360000000000000000000000000000000000000000000000000000000081526001600160a01b039190911660048201526024810191909152604490fd5b634e487b7160e01b600052601160045260246000fd5b346105ad576003196060813601126105ad5761291c61424d565b67ffffffffffffffff6024358181116105ad5761293d90369060040161449c565b9390916044359081116105ad5761295890369060040161449c565b926001600160a01b0395868616953387141580612bb1575b612b6f575061298d92916129859136916143d5565b9336916143d5565b938315612b45578251918551830361133457604051916129ac8361430d565b600083526101cb54169182612a93575b50505060005b818110612a0e5750507f4a39dc06d4c0dbc64b70af90fd698a233a518aa5d07e595d983b8c0526c8f7fb612a0060009460405191829133958361463f565b0390a461042360405161430d565b612a188184614608565b5190612a248187614608565b518260005260976020818152604060002088600052815260406000205491838310612a69576001956000528152604060002090886000525203604060002055016129c2565b60046040517f5f896ec2000000000000000000000000000000000000000000000000000000008152fd5b823b156105ad57869285600088612b208296612b0196612b116040519a8b998a9889977f80b10ace0000000000000000000000000000000000000000000000000000000089523060048a01523360248a0152604489015288606489015260e0608489015260e488019061443e565b90848783030160a488015261443e565b918483030160c485015261429c565b03925af18015610b4457612b36575b80806129bc565b612b3f906142f9565b84612b2f565b60046040517f45d40ad5000000000000000000000000000000000000000000000000000000008152fd5b6040517f839c23f20000000000000000000000000000000000000000000000000000000081523360048201526001600160a01b03919091166024820152604490fd5b5086600052609860205260406000203360005260205260ff6040600020541615612970565b346105ad5760206003193601126105ad576004356000526101c760205260206001600160a01b0360406000205416604051908152f35b346105ad5760406003193601126105ad576004356024356001600160a01b0381168091036105ad57612c3c61484b565b612c4682336149eb565b8160005260209061012d82526040600020817fffffffffffffffffffffffff000000000000000000000000000000000000000082541617905580612d1b575b6040513382857f5010f780a0de79bcfb9f3d6fec3cfe29758ef5c5800d575af709bc590bd78ade600080a483612ce757507f56e810c8cae84731149f628981d25769a084570b9ba6eebf3c32879e3dce56099250604051908152a16001606555005b604091506000837f6bb7ff708619ba0610cba295a58592e0451dee2622938c8755667688daf3529b948352820152a26110ef565b6040517f01ffc9a70000000000000000000000000000000000000000000000000000000081527f7bc7e6460000000000000000000000000000000000000000000000000000000060048201528281602481855afa908115610b4457600091612db4575b50612c8557602490604051907fda755beb0000000000000000000000000000000000000000000000000000000082526004820152fd5b612dcb9150833d8511610b3d57610b2f8183614329565b84612d7e565b346105ad57612ddf36614472565b612deb83929333614b93565b60008281526101fe602081815260408084206001600160a01b039788168086529083529084208054951990951694859055909491939092839083907f35fb03d0d293ef5b362761900725ce891f8f766b5a662cdd445372355448e7ca9080a4159182612f56575b82612f31575b5050612e6057005b7f8be0079c531659141344cd1fd0a4f28419497f9722a3daafe3b4186f6b6457e09160006040926101c9928354937fffffffffffffffffffffffff000000000000000000000000000000000000000085169055845193168352820152a160006040517f3be6d3a1d957610f7e900c66889b874cdc9f0c22901aa8be6ec3d2d04c14ca0f3391806115f6819060c082019160a06101c9546001600160a01b03908181168452821c60208401526101ca548181166040850152821c60608401526101cb549081166080840152811c910152565b9091506000805282526040600020906000528152600260406000205416158380612e58565b6101c954851682149250612e52565b346105ad5760006003193601126105ad576001600160a01b037f0000000000000000000000000000000000000000000000000000000000000000163003612fd05760206040517f360894a13ba1a3210667c828492db98dca3e2076cc3735a920a3ca505d382bbc8152f35b60046040517f5e4c25f1000000000000000000000000000000000000000000000000000000008152fd5b60406003193601126105ad5761300e61424d565b60243567ffffffffffffffff81116105ad5761302e90369060040161439f565b906001600160a01b03807f000000000000000000000000000000000000000000000000000000000000000016908130146132f7577f360894a13ba1a3210667c828492db98dca3e2076cc3735a920a3ca505d382bbc90808254169283036132cd57839261309a33614afb565b6040517f21f743470000000000000000000000000000000000000000000000000000000081526001600160a01b0391821660048201529316602484015260209283816044817f000000000000000000000000000000000000000000000000000000000000000086165afa908115610b44576000916132b0575b50156105ad577f4910fdfa16fed3260ed0e7147f7cc6da11a60208b5b9406d12a635614ffd91435460ff16156131505750505061042391506144fc565b8316906040517f52d1902d0000000000000000000000000000000000000000000000000000000081528381600481865afa60009181613281575b506131b95760046040517fe5ec1769000000000000000000000000000000000000000000000000000000008152fd5b03613257576131c7836144fc565b604051907fbc7cd75a20ee27fd9adebab32041f755214dbc6bffa90cc0225b39da2e5c2d3b600080a283511580159061324f575b61320157005b823b15613227575082600092839261042395519201905af4613221614581565b90614729565b807f369891e70000000000000000000000000000000000000000000000000000000060049252fd5b5060016131fb565b60046040517f8373ebf0000000000000000000000000000000000000000000000000000000008152fd5b9091508481813d83116132a9575b6132998183614329565b810103126105ad5751908761318a565b503d61328f565b6132c79150843d8611610b3d57610b2f8183614329565b86613113565b60046040517f64cd8d19000000000000000000000000000000000000000000000000000000008152fd5b60046040517f1932df45000000000000000000000000000000000000000000000000000000008152fd5b346105ad5760406003193601126105ad5760043567ffffffffffffffff8082116105ad57366023830112156105ad5781600401359061335f826143bd565b9261336d6040519485614329565b82845260209260248486019160051b830101913683116105ad57602401905b828210613468575050506024359081116105ad576133ae903690600401614423565b8251908051820361343e576133c2826143bd565b936133d06040519586614329565b828552601f196133df846143bd565b01368587013760005b83811061340257604051858152806108d98188018961443e565b8061342d6001600160a01b0361341a60019486614608565b51166134268387614608565b51906145b1565b6134378289614608565b52016133e8565b60046040517f4ce4cfdc000000000000000000000000000000000000000000000000000000008152fd5b81356001600160a01b03811681036105ad57815290840190840161338c565b346105ad5760406003193601126105ad576134a0614263565b6004356000526101fe6020526001600160a01b03604060002091166000526020526020604060002054604051908152f35b346105ad5760006003193601126105ad573360009081527f5f4301e3e862ad13c0503d3de32ba4e2e40c90733d1da23c9df4d0addbcf65086020526040902054602216151580156135ad575b1561358857476001600160a01b03906101ca91600080808085858854166204baf0f1613547614581565b501561354f57005b604492541690604051917fa489930c00000000000000000000000000000000000000000000000000000000835260048301526024820152fd5b6064604051634baa2a4d60e01b81523360048201526000602482015260206044820152fd5b503360009081527f5f4301e3e862ad13c0503d3de32ba4e2e40c90733d1da23c9df4d0addbcf65086020526040902054600216151561351d565b346105ad576020806003193601126105ad5761360161424d565b6001600160a01b0391827f0000000000000000000000000000000000000000000000000000000000000000168030146132f7577f360894a13ba1a3210667c828492db98dca3e2076cc3735a920a3ca505d382bbc90848254169081036132cd5782846136b99261367033614afb565b6040517f21f743470000000000000000000000000000000000000000000000000000000081526001600160a01b0391821660048201529116602482015291829081906044820190565b0381887f0000000000000000000000000000000000000000000000000000000000000000165afa908115610b4457600091613824575b50156105ad57604051936137028561430d565b600085527f4910fdfa16fed3260ed0e7147f7cc6da11a60208b5b9406d12a635614ffd91435460ff161561373d5750505061042391506144fc565b8316906040517f52d1902d0000000000000000000000000000000000000000000000000000000081528381600481865afa600091816137f5575b506137a65760046040517fe5ec1769000000000000000000000000000000000000000000000000000000008152fd5b03613257576137b4836144fc565b604051907fbc7cd75a20ee27fd9adebab32041f755214dbc6bffa90cc0225b39da2e5c2d3b600080a28351158015906137ed5761320157005b5060006131fb565b9091508481813d831161381d575b61380d8183614329565b810103126105ad57519087613777565b503d613803565b61383b9150833d8511610b3d57610b2f8183614329565b856136ef565b346105ad5760031960a0813601126105ad5761385b61424d565b90613864614263565b9167ffffffffffffffff6044358181116105ad57613886903690600401614423565b916064358281116105ad5761389f903690600401614423565b916084359081116105ad576138b890369060040161439f565b6001600160a01b03809216953387141580613bb9575b61055e5784518451810361343e57838216938415610534576101cb541680613b0e575b5060005b818110613a8d57505082876040517f4a39dc06d4c0dbc64b70af90fd698a233a518aa5d07e595d983b8c0526c8f7fb3391806139328a8c8361463f565b0390a43b61393c57005b60006020946139b66139a79761399794604051998a98899788967fbc197c81000000000000000000000000000000000000000000000000000000009e8f89523360048a0152602489015260a0604489015260a488019061443e565b908487830301606488015261443e565b9184830301608485015261429c565b03925af160009181613a6d575b50613a1c57505060016139d461469c565b6308c379a0146139e5575b61042557005b6139ed6146ba565b806139f857506139df565b6104849060405191829162461bcd60e51b835260206004840152602483019061429c565b7fffffffff0000000000000000000000000000000000000000000000000000000016146104235760046040517ffeff9fd4000000000000000000000000000000000000000000000000000000008152fd5b613a8691925060203d8111610503576104f48183614329565b90836139c3565b613a978188614608565b5190613aa38188614608565b518260005260206097815260406000208c60005281526040600020549082821061050a57846001956000526097825260406000208a60005282526040600020613aed858254614632565b9055600052609781526040600020908d6000525203604060002055016138f5565b803b156105ad57600087613b7b9287838d613b9b8e613b8b8e6040519a8b998a9889977f80b10ace0000000000000000000000000000000000000000000000000000000089523060048a01523360248a01526044890152606488015260e0608488015260e487019061443e565b90838683030160a487015261443e565b908382030160c48401528b61429c565b03925af18015610b4457156138f157613bb3906142f9565b886138f1565b5086600052609860205260406000203360005260205260ff60406000205416156138ce565b346105ad5760406003193601126105ad57613bfa6004356154e4565b6001600160a01b036040613c44613c1d60243563ffffffff602087015116614c3a565b7f000000000000000000000000000000000000000000000000000000000000000090614f6e565b920151166108d960405192839283602090939291936001600160a01b0360408201951681520152565b346105ad5760606003193601126105ad57613c8661424d565b6024356000526101fe6020526001600160a01b03604060002091166000526020526020604435600217604060002054161515604051908152f35b346105ad5760406003193601126105ad5767ffffffffffffffff6004356024358281116105ad57613cf590369060040161439f565b91613d0082336149eb565b81156105ad5760405191807f6bb7ff708619ba0610cba295a58592e0451dee2622938c8755667688daf3529b60209485815280613d3f8782018961429c565b0390a26000526101c6825260406000209183519182116107f357613d63835461476a565b601f8111613e0b575b5080601f8311600114613da85750819293600092613d9d575b50506000198260011b9260031b1c1916179055600080f35b015190508380613d85565b90601f198316948460005282600020926000905b878210613df3575050836001959610613dda575b505050811b019055005b015160001960f88460031b161c19169055838080613dd0565b80600185968294968601518155019501930190613dbc565b8360005281600020601f840160051c810191838510613e47575b601f0160051c01905b818110613e3b5750613d6c565b60008155600101613e2e565b9091508190613e25565b346105ad5760006003193601126105ad57602060405160088152f35b346105ad5760206003193601126105ad57613e8661424d565b613e8f33614afb565b6001600160a01b03811660009081527f5f4301e3e862ad13c0503d3de32ba4e2e40c90733d1da23c9df4d0addbcf6508602052604090205460021615613ed857610423906152bc565b60046040517f98ee9d38000000000000000000000000000000000000000000000000000000008152fd5b346105ad5760006003193601126105ad5760206040517f00000000000000000000000000000000000000000000000000000000000000008152f35b346105ad5760206003193601126105ad57613f5661424d565b3360009081527f5f4301e3e862ad13c0503d3de32ba4e2e40c90733d1da23c9df4d0addbcf6508602052604090205460221615158015613f9f575b1561358857610423906153a2565b503360009081527f5f4301e3e862ad13c0503d3de32ba4e2e40c90733d1da23c9df4d0addbcf650860205260409020546002161515613f91565b346105ad5760206003193601126105ad576108d96108c5600435615225565b346105ad5760006003193601126105ad576040516000610193805461401c8161476a565b808552916001918083169081156140a25750600114614046575b6108d9856108c581870382614329565b600090815292507ffc8af01f449989052b52093a58fc9f42d0b11f0c6dd5dca0463dab62346ccc685b82841061408a5750505081016020016108c5826108d9614036565b8054602085870181019190915290930192810161406f565b8695506108d9969350602092506108c594915060ff191682840152151560051b8201019293614036565b346105ad5760206003193601126105ad576004357fffffffff0000000000000000000000000000000000000000000000000000000081168091036105ad57807f2a55205a00000000000000000000000000000000000000000000000000000000602092149081156141d8575b811561414a575b506040519015158152f35b7fd9b67a26000000000000000000000000000000000000000000000000000000008114915081156141ae575b8115614184575b508261413f565b7f01ffc9a7000000000000000000000000000000000000000000000000000000009150148261417d565b7f0e89341c0000000000000000000000000000000000000000000000000000000081149150614176565b7f2920ca160000000000000000000000000000000000000000000000000000000081149150614138565b346105ad5760006003193601126105ad57602060405160008152f35b346105ad5760406003193601126105ad57602061424561423c61424d565b602435906145b1565b604051908152f35b600435906001600160a01b03821682036105ad57565b602435906001600160a01b03821682036105ad57565b60005b83811061428c5750506000910152565b818101518382015260200161427c565b90601f19601f6020936142ba81518092818752878088019101614279565b0116010190565b6040810190811067ffffffffffffffff8211176107f357604052565b6060810190811067ffffffffffffffff8211176107f357604052565b67ffffffffffffffff81116107f357604052565b6020810190811067ffffffffffffffff8211176107f357604052565b90601f601f19910116810190811067ffffffffffffffff8211176107f357604052565b67ffffffffffffffff81116107f357601f01601f191660200190565b9291926143748261434c565b916143826040519384614329565b8294818452818301116105ad578281602093846000960137010152565b9080601f830112156105ad578160206143ba93359101614368565b90565b67ffffffffffffffff81116107f35760051b60200190565b92916143e0826143bd565b916143ee6040519384614329565b829481845260208094019160051b81019283116105ad57905b8282106144145750505050565b81358152908301908301614407565b9080601f830112156105ad578160206143ba933591016143d5565b90815180825260208080930193019160005b82811061445e575050505090565b835185529381019392810192600101614450565b60031960609101126105ad57600435906024356001600160a01b03811681036105ad579060443590565b9181601f840112156105ad5782359167ffffffffffffffff83116105ad576020808501948460051b0101116105ad57565b60208152606060406144ea8451836020860152608085019061429c565b93602081015182850152015191015290565b803b15614557576001600160a01b037f360894a13ba1a3210667c828492db98dca3e2076cc3735a920a3ca505d382bbc91167fffffffffffffffffffffffff0000000000000000000000000000000000000000825416179055565b60046040517f529880eb000000000000000000000000000000000000000000000000000000008152fd5b3d156145ac573d906145928261434c565b916145a06040519384614329565b82523d6000602084013e565b606090565b6001600160a01b03169081156145de57600052609760205260406000209060005260205260406000205490565b60046040517f8620cc34000000000000000000000000000000000000000000000000000000008152fd5b805182101561461c5760209160051b010190565b634e487b7160e01b600052603260045260246000fd5b919082018092116128ec57565b90916146566143ba9360408452604084019061443e565b91602081840391015261443e565b908160209103126105ad57517fffffffff00000000000000000000000000000000000000000000000000000000811681036105ad5790565b60009060033d116146a957565b905060046000803e60005160e01c90565b600060443d106143ba5760405160031991823d016004833e815167ffffffffffffffff918282113d60248401111761471857818401948551938411614720573d8501016020848701011161471857506143ba92910160200190614329565b949350505050565b50949350505050565b156147315790565b80511561474057805190602001fd5b60046040517fa1451936000000000000000000000000000000000000000000000000000000008152fd5b90600182811c9216801561479a575b602083101461478457565b634e487b7160e01b600052602260045260246000fd5b91607f1691614779565b90604051918260008254926147b88461476a565b90818452600194858116908160001461482757506001146147e4575b50506147e292500383614329565b565b9093915060005260209081600020936000915b81831061480f5750506147e2935082010138806147d4565b855488840185015294850194879450918301916147f7565b90506147e295506020935060ff1991501682840152151560051b82010138806147d4565b60026065541461485c576002606555565b606460405162461bcd60e51b815260206004820152601f60248201527f5265656e7472616e637947756172643a207265656e7472616e742063616c6c006044820152fd5b90815167ffffffffffffffff81116107f357610193906148c0825461476a565b601f8111614986575b50602080601f83116001146149055750819293946000926148fa575b50506000198260011b9260031b1c1916179055565b0151905038806148e5565b90601f19831695846000527ffc8af01f449989052b52093a58fc9f42d0b11f0c6dd5dca0463dab62346ccc68926000905b88821061496e57505083600195969710614955575b505050811b019055565b015160001960f88460031b161c1916905538808061494b565b80600185968294968601518155019501930190614936565b60008381527ffc8af01f449989052b52093a58fc9f42d0b11f0c6dd5dca0463dab62346ccc68601f840160051c810192602085106149e1575b601f0160051c01915b8281106149d65750506148c9565b8181556001016149c8565b90925082906149bf565b9060008181526101fe90816020526001600160a01b036040822094169384825260205260126040822054161591821592614a50575b505015614a2b575050565b6064925060405191634baa2a4d60e01b83526004830152602482015260106044820152fd5b600292509060409181805260205281812085825260205220541615153880614a20565b9060008181526101fe90816020526001600160a01b036040822094169384825260205260066040822054161591821592614ad8575b505015614ab3575050565b6064925060405191634baa2a4d60e01b83526004830152602482015260046044820152fd5b600292509060409181805260205281812085825260205220541615153880614aa8565b6001600160a01b031660008181527f5f4301e3e862ad13c0503d3de32ba4e2e40c90733d1da23c9df4d0addbcf65086020526040812054600216158015906101fe90614b71575b5015614b4c575050565b6064925060405191634baa2a4d60e01b83526004830152602482015260026044820152fd5b9050818052602052604081208282526020526002604082205416151538614b42565b9060008181526101fe90816020526001600160a01b036040822094169384825260205260026040822054161591821592614bd3575b505015614b4c575050565b600292509060409181805260205281812085825260205220541615153880614bc8565b60001981146128ec5760010190565b90929192614c128161434c565b91614c206040519384614329565b8294828452828201116105ad5760206147e2930190614279565b818102929181159184041417156128ec57565b60031115614c5757565b634e487b7160e01b600052602160045260246000fd5b51906001600160a01b03821682036105ad57565b908160209103126105ad575180151581036105ad5790565b909291614cc9614cce938286614cb0838383614f78565b95614cc4614cbe8885614632565b83614eda565b614cef565b614632565b906000526101c6602052614ceb6002604060002001918254614632565b9055565b9291906001600160a01b038416801561135e57600092828452602094609786526040968786208487528752878620614d28848254614632565b905583868951878152858a8201527fc3d58168c5ae7397731d063d5bbf3d657854427343f4c083240f7aacaa2d0f628b3392a43b614d6a575b50505050505050565b614dc59286928689518096819582947ff23a6e61000000000000000000000000000000000000000000000000000000009a8b85523360048601528560248601526044850152606484015260a0608484015260a483019061429c565b03925af1839181614ebb575b50614e61575050600191614de361469c565b6308c379a014614e2b575b5050614e0257505b38808080808080614d61565b600490517fefab6922000000000000000000000000000000000000000000000000000000008152fd5b614e336146ba565b9182614e3f5750614dee565b8461048491505192839262461bcd60e51b84526004840152602483019061429c565b7fffffffff0000000000000000000000000000000000000000000000000000000016039150614e9290505750614df6565b600490517ffeff9fd4000000000000000000000000000000000000000000000000000000008152fd5b614ed3919250853d8711610503576104f48183614329565b9038614dd1565b90816000526101c66020526040600020906002820154906001614efd8284614632565b930154809311614f0d5750505050565b60849450604051937f1255c8fd0000000000000000000000000000000000000000000000000000000085526004850152602484015260448301526064820152fd5b8115614f58570690565b634e487b7160e01b600052601260045260246000fd5b8115614f58570490565b92919092600093818552610160948560205263ffffffff604092818484205416918215615063575b50811561505957614fca908584526101c6602052614fc48360028787200154614f4e565b90614632565b60001982019182116150455790614fe091614f6e565b9586614fee575b5050505050565b8382526020526001600160a01b038083832054841c16928315615032575b5082161561502b575061502192918591614cef565b3880808080614fe7565b9450505050565b82805280832054901c811692503861500c565b602483634e487b7160e01b81526011600452fd5b5090955050505050565b8380528484205416915038614fa0565b6020818303126105ad5780519067ffffffffffffffff82116105ad57019080601f830112156105ad5781516143ba92602001614c05565b6000805261012d6020527fa581b17bfc4d6578e300cafbf34fd2dc1fef0270d8c73f88a99dcde2859a6639546001600160a01b039081168015615155575b16806150f757506143ba615163565b6000600491604051928380927fe8a3d4850000000000000000000000000000000000000000000000000000000082525afa908115610b445760009161513a575090565b6143ba913d8091833e61514d8183614329565b810190615073565b5080604060002054166150e8565b60008080526101c6908160205260409161517f8383205461476a565b615215575080805261012d6020526001600160a01b0390808284822054168015615209575b60248551809581937f0e89341c000000000000000000000000000000000000000000000000000000008352856004840152165afa9283156151ff575080926151eb57505090565b6143ba92503d8091833e61514d8183614329565b51903d90823e3d90fd5b508284822054166151a4565b818052602052206143ba906147a4565b6000908082526101c68060205261523f604084205461476a565b6152a95750816001600160a01b03615256836154b1565b16916024604051809481937f0e89341c00000000000000000000000000000000000000000000000000000000835260048301525afa91821561529d5780926151eb57505090565b604051903d90823e3d90fd5b916143ba926040928252602052206147a4565b6101c980546001600160a01b039283167fffffffffffffffffffffffff0000000000000000000000000000000000000000821681179092556040805193909116835260208301919091527f8be0079c531659141344cd1fd0a4f28419497f9722a3daafe3b4186f6b6457e091a160006040517f3be6d3a1d957610f7e900c66889b874cdc9f0c22901aa8be6ec3d2d04c14ca0f33918061539d819060c082019160a06101c9546001600160a01b03908181168452821c60208401526101ca548181166040850152821c60608401526101cb549081166080840152811c910152565b0390a3565b6001600160a01b036101ca91167fffffffffffffffffffffffff000000000000000000000000000000000000000082541617905560016040517f3be6d3a1d957610f7e900c66889b874cdc9f0c22901aa8be6ec3d2d04c14ca0f33918061539d819060c082019160a06101c9546001600160a01b03908181168452821c60208401526101ca548181166040850152821c60608401526101cb549081166080840152811c910152565b6001600160a01b031660008181527f5f4301e3e862ad13c0503d3de32ba4e2e40c90733d1da23c9df4d0addbcf65086020526040812080546002179081905591907f35fb03d0d293ef5b362761900725ce891f8f766b5a662cdd445372355448e7ca8180a4565b60005261012d6020526001600160a01b039081604060002054169182156154d55750565b60008080526040902054169150565b60408051916154f2836142dd565b600090818452818360209582878201520152815281610160918285526001600160a01b03928383832054841c166155545781805285522092825193615536856142dd565b549063ffffffff808316865282821c1690850152821c169082015290565b502092825193615536856142dd565b61556f909392936154e4565b9263ffffffff91828551169081156155be5761558f9291614fc491614f4e565b9060001981855116018181116128ec576001600160a01b03926040926155b6921690614f6e565b930151169190565b505050509060406001600160a01b039101511690600090565b91906155e2816143bd565b906040916155f283519182614329565b818152601f19615601836143bd565b0160005b81811061571d575050809460005b838110615621575050505050565b8060051b8201357fffffffffffffffffffffffffffffffffffffffffffffffffffffffffffffffe1833603018112156105ad5782019081359167ffffffffffffffff83116105ad5760208091019083360382136105ad5760008061568d6156fd94615718973691614368565b8a5193615699856142dd565b602785527f416464726573733a206c6f772d6c6576656c2064656c65676174652063616c6c818601527f206661696c6564000000000000000000000000000000000000000000000000008c86015281519101305af46156f6614581565b903061572e565b6157078286614608565b526157128185614608565b50614bf6565b615613565b806060602080938601015201615605565b9192901561578f5750815115615742575090565b3b1561574b5790565b606460405162461bcd60e51b815260206004820152601d60248201527f416464726573733a2063616c6c20746f206e6f6e2d636f6e74726163740000006044820152fd5b8251909150156139f85750805190602001fdfea2646970667358221220d5c81e6258217db22e68651309c7205c6af4aa8290e902748c043452fc63917164736f6c63430008110033",
        "linkReferences": {}
    },
    "methodIdentifiers": {
        "CONTRACT_BASE_ID()": "01144201",
        "PERMISSION_BIT_ADMIN()": "c0464356",
        "PERMISSION_BIT_FUNDS_MANAGER()": "929a7128",
        "PERMISSION_BIT_METADATA()": "a453eaf0",
        "PERMISSION_BIT_MINTER()": "f1b0d6bb",
        "PERMISSION_BIT_SALES()": "18711c7d",
        "addPermission(uint256,address,uint256)": "8ec998a0",
        "adminMint(address,uint256,uint256,bytes)": "c238d1ee",
        "adminMintBatch(address,uint256[],uint256[],bytes)": "d1ad846b",
        "assumeLastTokenIdMatches(uint256)": "e72878b4",
        "balanceOf(address,uint256)": "00fdd58e",
        "balanceOfBatch(address[],uint256[])": "4e1273f4",
        "burnBatch(address,uint256[],uint256[])": "6b20c454",
        "callRenderer(uint256,bytes)": "9c5c63c9",
        "callSale(uint256,address,bytes)": "d904b94a",
        "config()": "79502c55",
        "contractURI()": "e8a3d485",
        "contractVersion()": "a0a8e460",
        "customRenderers(uint256)": "dd15e05f",
        "getCustomRenderer(uint256)": "e74d86c2",
        "getPermissions(uint256,address)": "4913162d",
        "getRoyalties(uint256)": "bb3bafd6",
        "getTokenInfo(uint256)": "8c7a63ae",
        "initialize(string,string,(uint32,uint32,address),address,bytes[])": "8a08eb4c",
        "isAdminOrRole(address,uint256,uint256)": "23bd0386",
        "isApprovedForAll(address,address)": "e985e9c5",
        "metadataRendererContract(uint256)": "69a5b302",
        "mint(address,uint256,uint256,bytes)": "731133e9",
        "mintFee()": "13966db5",
        "mintFeeRecipient()": "765b0c36",
        "multicall(bytes[])": "ac9650d8",
        "name()": "06fdde03",
        "nextTokenId()": "75794a3c",
        "owner()": "8da5cb5b",
        "permissions(uint256,address)": "300ecdb9",
        "proxiableUUID()": "52d1902d",
        "removePermission(uint256,address,uint256)": "5d0f6cba",
        "royalties(uint256)": "7f77f574",
        "royaltyInfo(uint256,uint256)": "2a55205a",
        "safeBatchTransferFrom(address,address,uint256[],uint256[],bytes)": "2eb2c2d6",
        "safeTransferFrom(address,address,uint256,uint256,bytes)": "f242432a",
        "setApprovalForAll(address,bool)": "a22cb465",
        "setFundsRecipient(address)": "10a7eb5d",
        "setOwner(address)": "13af4035",
        "setTokenMetadataRenderer(uint256,address)": "6661a9ba",
        "setTransferHook(address)": "7f2dc61c",
        "setupNewToken(string,uint256)": "d258609a",
        "supplyRoyaltyInfo(uint256,uint256,uint256)": "8621ea4b",
        "supportsInterface(bytes4)": "01ffc9a7",
        "symbol()": "95d89b41",
        "updateContractMetadata(string,string)": "ef71c82e",
        "updateRoyaltiesForToken(uint256,(uint32,uint32,address))": "afed7e9e",
        "updateTokenURI(uint256,string)": "18e97fd1",
        "upgradeTo(address)": "3659cfe6",
        "upgradeToAndCall(address,bytes)": "4f1ef286",
        "uri(uint256)": "0e89341c",
        "withdraw()": "3ccfd60b"
    },
    "id": 116
}